{
  "_format": "hh-sol-artifact-1",
  "contractName": "Brillianz",
  "sourceName": "contracts/main/Brillianz.sol",
  "abi": [
    {
      "anonymous": false,
      "inputs": [
        {
          "indexed": true,
          "internalType": "address",
          "name": "accessControl",
          "type": "address"
        },
        {
          "indexed": true,
          "internalType": "address",
          "name": "newAccessControl",
          "type": "address"
        }
      ],
      "name": "AccessControlChanged",
      "type": "event"
    },
    {
      "anonymous": false,
      "inputs": [
        {
          "indexed": false,
          "internalType": "address",
          "name": "previousAdmin",
          "type": "address"
        },
        {
          "indexed": false,
          "internalType": "address",
          "name": "newAdmin",
          "type": "address"
        }
      ],
      "name": "AdminChanged",
      "type": "event"
    },
    {
      "anonymous": false,
      "inputs": [
        {
          "indexed": true,
          "internalType": "address",
          "name": "beacon",
          "type": "address"
        }
      ],
      "name": "BeaconUpgraded",
      "type": "event"
    },
    {
      "anonymous": false,
      "inputs": [
        {
          "indexed": true,
          "internalType": "address",
          "name": "oldBounty",
          "type": "address"
        },
        {
          "indexed": true,
          "internalType": "address",
          "name": "newBounty",
          "type": "address"
        }
      ],
      "name": "BountyChanged",
      "type": "event"
    },
    {
      "anonymous": false,
      "inputs": [
        {
          "indexed": false,
          "internalType": "uint8",
          "name": "version",
          "type": "uint8"
        }
      ],
      "name": "Initialized",
      "type": "event"
    },
    {
      "anonymous": false,
      "inputs": [
        {
          "indexed": true,
          "internalType": "address",
          "name": "oldMarketplace",
          "type": "address"
        },
        {
          "indexed": true,
          "internalType": "address",
          "name": "newMarketplace",
          "type": "address"
        }
      ],
      "name": "MarketplaceChanged",
      "type": "event"
    },
    {
      "anonymous": false,
      "inputs": [
        {
          "indexed": true,
          "internalType": "address",
          "name": "oldRedemption",
          "type": "address"
        },
        {
          "indexed": true,
          "internalType": "address",
          "name": "newRedemption",
          "type": "address"
        }
      ],
      "name": "RedemptionChanged",
      "type": "event"
    },
    {
      "anonymous": false,
      "inputs": [
        {
          "indexed": true,
          "internalType": "bytes32",
          "name": "role",
          "type": "bytes32"
        },
        {
          "indexed": true,
          "internalType": "bytes32",
          "name": "previousAdminRole",
          "type": "bytes32"
        },
        {
          "indexed": true,
          "internalType": "bytes32",
          "name": "newAdminRole",
          "type": "bytes32"
        }
      ],
      "name": "RoleAdminChanged",
      "type": "event"
    },
    {
      "anonymous": false,
      "inputs": [
        {
          "indexed": true,
          "internalType": "bytes32",
          "name": "role",
          "type": "bytes32"
        },
        {
          "indexed": true,
          "internalType": "address",
          "name": "account",
          "type": "address"
        },
        {
          "indexed": true,
          "internalType": "address",
          "name": "sender",
          "type": "address"
        }
      ],
      "name": "RoleGranted",
      "type": "event"
    },
    {
      "anonymous": false,
      "inputs": [
        {
          "indexed": true,
          "internalType": "bytes32",
          "name": "role",
          "type": "bytes32"
        },
        {
          "indexed": true,
          "internalType": "address",
          "name": "account",
          "type": "address"
        },
        {
          "indexed": true,
          "internalType": "address",
          "name": "sender",
          "type": "address"
        }
      ],
      "name": "RoleRevoked",
      "type": "event"
    },
    {
      "anonymous": false,
      "inputs": [
        {
          "indexed": true,
          "internalType": "address",
          "name": "oldSigner",
          "type": "address"
        },
        {
          "indexed": true,
          "internalType": "address",
          "name": "newSigner",
          "type": "address"
        }
      ],
      "name": "SignerChanged",
      "type": "event"
    },
    {
      "anonymous": false,
      "inputs": [
        {
          "indexed": true,
          "internalType": "address",
          "name": "implementation",
          "type": "address"
        }
      ],
      "name": "Upgraded",
      "type": "event"
    },
    {
      "inputs": [],
      "name": "DEFAULT_ADMIN_ROLE",
      "outputs": [
        {
          "internalType": "bytes32",
          "name": "",
          "type": "bytes32"
        }
      ],
      "stateMutability": "view",
      "type": "function"
    },
    {
      "inputs": [],
      "name": "accessControl",
      "outputs": [
        {
          "internalType": "address",
          "name": "",
          "type": "address"
        }
      ],
      "stateMutability": "view",
      "type": "function"
    },
    {
      "inputs": [
        {
          "internalType": "bytes32[]",
          "name": "",
          "type": "bytes32[]"
        }
      ],
      "name": "addPermissions",
      "outputs": [],
      "stateMutability": "nonpayable",
      "type": "function"
    },
    {
      "inputs": [
        {
          "internalType": "bytes",
          "name": "",
          "type": "bytes"
        },
        {
          "internalType": "bytes",
          "name": "",
          "type": "bytes"
        },
        {
          "internalType": "bytes",
          "name": "",
          "type": "bytes"
        },
        {
          "internalType": "bytes",
          "name": "",
          "type": "bytes"
        }
      ],
      "name": "approveRedemption",
      "outputs": [],
      "stateMutability": "nonpayable",
      "type": "function"
    },
    {
      "inputs": [],
      "name": "bounty",
      "outputs": [
        {
          "internalType": "address",
          "name": "",
          "type": "address"
        }
      ],
      "stateMutability": "view",
      "type": "function"
    },
    {
      "inputs": [
        {
          "internalType": "uint256[]",
          "name": "",
          "type": "uint256[]"
        },
        {
          "internalType": "address[]",
          "name": "",
          "type": "address[]"
        },
        {
          "internalType": "bytes[]",
          "name": "",
          "type": "bytes[]"
        },
        {
          "internalType": "bytes[]",
          "name": "",
          "type": "bytes[]"
        },
        {
          "internalType": "string[]",
          "name": "",
          "type": "string[]"
        }
      ],
      "name": "buy",
      "outputs": [],
      "stateMutability": "nonpayable",
      "type": "function"
    },
    {
      "inputs": [
        {
          "internalType": "uint256",
          "name": "",
          "type": "uint256"
        },
        {
          "internalType": "uint256",
          "name": "",
          "type": "uint256"
        },
        {
          "internalType": "address",
          "name": "",
          "type": "address"
        },
        {
          "internalType": "bytes",
          "name": "",
          "type": "bytes"
        },
        {
          "internalType": "bytes",
          "name": "",
          "type": "bytes"
        },
        {
          "internalType": "bytes",
          "name": "",
          "type": "bytes"
        },
        {
          "internalType": "bytes",
          "name": "",
          "type": "bytes"
        }
      ],
      "name": "cancelEvent",
      "outputs": [],
      "stateMutability": "nonpayable",
      "type": "function"
    },
    {
      "inputs": [
        {
          "internalType": "bytes",
          "name": "",
          "type": "bytes"
        },
        {
          "internalType": "bytes",
          "name": "",
          "type": "bytes"
        },
        {
          "internalType": "bytes",
          "name": "",
          "type": "bytes"
        },
        {
          "internalType": "bytes",
          "name": "",
          "type": "bytes"
        }
      ],
      "name": "cancelRedemption",
      "outputs": [],
      "stateMutability": "nonpayable",
      "type": "function"
    },
    {
      "inputs": [
        {
          "internalType": "address",
          "name": "account",
          "type": "address"
        },
        {
          "internalType": "bytes32",
          "name": "permissions_",
          "type": "bytes32"
        }
      ],
      "name": "checkPermissions",
      "outputs": [
        {
          "internalType": "bool",
          "name": "",
          "type": "bool"
        }
      ],
      "stateMutability": "view",
      "type": "function"
    },
    {
      "inputs": [
        {
          "internalType": "address",
          "name": "",
          "type": "address"
        },
        {
          "internalType": "uint256",
          "name": "",
          "type": "uint256"
        },
        {
          "internalType": "bytes[]",
          "name": "",
          "type": "bytes[]"
        },
        {
          "internalType": "bytes",
          "name": "",
          "type": "bytes"
        },
        {
          "internalType": "bytes",
          "name": "",
          "type": "bytes"
        }
      ],
      "name": "claim",
      "outputs": [],
      "stateMutability": "nonpayable",
      "type": "function"
    },
    {
      "inputs": [
        {
          "internalType": "address",
          "name": "",
          "type": "address"
        },
        {
          "internalType": "bytes",
          "name": "",
          "type": "bytes"
        }
      ],
      "name": "claimedEvents",
      "outputs": [
        {
          "internalType": "bool",
          "name": "",
          "type": "bool"
        }
      ],
      "stateMutability": "view",
      "type": "function"
    },
    {
      "inputs": [
        {
          "internalType": "address",
          "name": "",
          "type": "address"
        },
        {
          "internalType": "uint256",
          "name": "",
          "type": "uint256"
        },
        {
          "internalType": "bytes",
          "name": "",
          "type": "bytes"
        },
        {
          "internalType": "bytes",
          "name": "",
          "type": "bytes"
        }
      ],
      "name": "deposit",
      "outputs": [],
      "stateMutability": "nonpayable",
      "type": "function"
    },
    {
      "inputs": [
        {
          "internalType": "bytes32",
          "name": "",
          "type": "bytes32"
        }
      ],
      "name": "existingPermissions",
      "outputs": [
        {
          "internalType": "bool",
          "name": "",
          "type": "bool"
        }
      ],
      "stateMutability": "view",
      "type": "function"
    },
    {
      "inputs": [
        {
          "internalType": "bytes32",
          "name": "role",
          "type": "bytes32"
        }
      ],
      "name": "getRoleAdmin",
      "outputs": [
        {
          "internalType": "bytes32",
          "name": "",
          "type": "bytes32"
        }
      ],
      "stateMutability": "view",
      "type": "function"
    },
    {
      "inputs": [],
      "name": "getSigner",
      "outputs": [
        {
          "internalType": "address",
          "name": "",
          "type": "address"
        }
      ],
      "stateMutability": "view",
      "type": "function"
    },
    {
      "inputs": [
        {
          "internalType": "bytes32",
          "name": "role",
          "type": "bytes32"
        },
        {
          "internalType": "address",
          "name": "account",
          "type": "address"
        }
      ],
      "name": "grantRole",
      "outputs": [],
      "stateMutability": "nonpayable",
      "type": "function"
    },
    {
      "inputs": [
        {
          "internalType": "address",
          "name": "",
          "type": "address"
        },
        {
          "internalType": "bytes32",
          "name": "",
          "type": "bytes32"
        },
        {
          "internalType": "bytes32[]",
          "name": "",
          "type": "bytes32[]"
        },
        {
          "internalType": "bytes",
          "name": "",
          "type": "bytes"
        },
        {
          "internalType": "bytes",
          "name": "",
          "type": "bytes"
        }
      ],
      "name": "handleAccessControlByAction",
      "outputs": [],
      "stateMutability": "nonpayable",
      "type": "function"
    },
    {
      "inputs": [
        {
          "internalType": "bytes32",
          "name": "role",
          "type": "bytes32"
        },
        {
          "internalType": "address",
          "name": "account",
          "type": "address"
        }
      ],
      "name": "hasRole",
      "outputs": [
        {
          "internalType": "bool",
          "name": "",
          "type": "bool"
        }
      ],
      "stateMutability": "view",
      "type": "function"
    },
    {
      "inputs": [],
      "name": "initialize",
      "outputs": [],
      "stateMutability": "nonpayable",
      "type": "function"
    },
    {
      "inputs": [
        {
          "internalType": "bytes32",
          "name": "",
          "type": "bytes32"
        },
        {
          "internalType": "bytes",
          "name": "",
          "type": "bytes"
        }
      ],
      "name": "invalidSignatures",
      "outputs": [
        {
          "internalType": "bool",
          "name": "",
          "type": "bool"
        }
      ],
      "stateMutability": "view",
      "type": "function"
    },
    {
      "inputs": [
        {
          "internalType": "address",
          "name": "",
          "type": "address"
        }
      ],
      "name": "isActivated",
      "outputs": [
        {
          "internalType": "bool",
          "name": "",
          "type": "bool"
        }
      ],
      "stateMutability": "view",
      "type": "function"
    },
    {
      "inputs": [
        {
          "internalType": "address",
          "name": "account",
          "type": "address"
        }
      ],
      "name": "isAdmin",
      "outputs": [
        {
          "internalType": "bool",
          "name": "result",
          "type": "bool"
        }
      ],
      "stateMutability": "view",
      "type": "function"
    },
    {
      "inputs": [
        {
          "internalType": "address",
          "name": "account",
          "type": "address"
        }
      ],
      "name": "isSuperAdmin",
      "outputs": [
        {
          "internalType": "bool",
          "name": "",
          "type": "bool"
        }
      ],
      "stateMutability": "view",
      "type": "function"
    },
    {
      "inputs": [],
      "name": "marketplace",
      "outputs": [
        {
          "internalType": "address",
          "name": "",
          "type": "address"
        }
      ],
      "stateMutability": "view",
      "type": "function"
    },
    {
      "inputs": [
        {
          "internalType": "address",
          "name": "",
          "type": "address"
        },
        {
          "internalType": "address",
          "name": "",
          "type": "address"
        },
        {
          "internalType": "bytes",
          "name": "",
          "type": "bytes"
        },
        {
          "internalType": "bytes",
          "name": "",
          "type": "bytes"
        },
        {
          "internalType": "bytes",
          "name": "",
          "type": "bytes"
        },
        {
          "internalType": "string",
          "name": "",
          "type": "string"
        }
      ],
      "name": "mintBlackDiamond",
      "outputs": [],
      "stateMutability": "nonpayable",
      "type": "function"
    },
    {
      "inputs": [
        {
          "internalType": "address",
          "name": "",
          "type": "address"
        },
        {
          "internalType": "address",
          "name": "",
          "type": "address"
        },
        {
          "internalType": "uint256",
          "name": "",
          "type": "uint256"
        },
        {
          "internalType": "bytes",
          "name": "",
          "type": "bytes"
        }
      ],
      "name": "onERC721Received",
      "outputs": [
        {
          "internalType": "bytes4",
          "name": "",
          "type": "bytes4"
        }
      ],
      "stateMutability": "pure",
      "type": "function"
    },
    {
      "inputs": [
        {
          "internalType": "uint256",
          "name": "",
          "type": "uint256"
        }
      ],
      "name": "permissions",
      "outputs": [
        {
          "internalType": "bytes32",
          "name": "",
          "type": "bytes32"
        }
      ],
      "stateMutability": "view",
      "type": "function"
    },
    {
      "inputs": [],
      "name": "proxiableUUID",
      "outputs": [
        {
          "internalType": "bytes32",
          "name": "",
          "type": "bytes32"
        }
      ],
      "stateMutability": "view",
      "type": "function"
    },
    {
      "inputs": [
        {
          "internalType": "address",
          "name": "",
          "type": "address"
        },
        {
          "internalType": "address",
          "name": "",
          "type": "address"
        },
        {
          "internalType": "bytes",
          "name": "",
          "type": "bytes"
        },
        {
          "internalType": "bytes",
          "name": "",
          "type": "bytes"
        },
        {
          "internalType": "bytes",
          "name": "",
          "type": "bytes"
        },
        {
          "internalType": "string",
          "name": "",
          "type": "string"
        }
      ],
      "name": "recoverMinting",
      "outputs": [],
      "stateMutability": "nonpayable",
      "type": "function"
    },
    {
      "inputs": [],
      "name": "redemption",
      "outputs": [
        {
          "internalType": "address",
          "name": "",
          "type": "address"
        }
      ],
      "stateMutability": "view",
      "type": "function"
    },
    {
      "inputs": [
        {
          "internalType": "bytes",
          "name": "",
          "type": "bytes"
        }
      ],
      "name": "redemptions",
      "outputs": [
        {
          "internalType": "address",
          "name": "redeemer",
          "type": "address"
        },
        {
          "internalType": "address",
          "name": "collection",
          "type": "address"
        },
        {
          "internalType": "bytes",
          "name": "id",
          "type": "bytes"
        }
      ],
      "stateMutability": "view",
      "type": "function"
    },
    {
      "inputs": [
        {
          "internalType": "bytes32[]",
          "name": "",
          "type": "bytes32[]"
        }
      ],
      "name": "removePermissions",
      "outputs": [],
      "stateMutability": "nonpayable",
      "type": "function"
    },
    {
      "inputs": [
        {
          "internalType": "bytes32",
          "name": "role",
          "type": "bytes32"
        },
        {
          "internalType": "address",
          "name": "account",
          "type": "address"
        }
      ],
      "name": "renounceRole",
      "outputs": [],
      "stateMutability": "nonpayable",
      "type": "function"
    },
    {
      "inputs": [
        {
          "internalType": "bytes32",
          "name": "role",
          "type": "bytes32"
        },
        {
          "internalType": "address",
          "name": "account",
          "type": "address"
        }
      ],
      "name": "revokeRole",
      "outputs": [],
      "stateMutability": "nonpayable",
      "type": "function"
    },
    {
      "inputs": [
        {
          "internalType": "address",
          "name": "newAccessControl",
          "type": "address"
        }
      ],
      "name": "setAccessControl",
      "outputs": [],
      "stateMutability": "nonpayable",
      "type": "function"
    },
    {
      "inputs": [
        {
          "internalType": "address",
          "name": "newBounty",
          "type": "address"
        }
      ],
      "name": "setBounty",
      "outputs": [],
      "stateMutability": "nonpayable",
      "type": "function"
    },
    {
      "inputs": [
        {
          "internalType": "address",
          "name": "newMarketplace",
          "type": "address"
        }
      ],
      "name": "setMarketplace",
      "outputs": [],
      "stateMutability": "nonpayable",
      "type": "function"
    },
    {
      "inputs": [
        {
          "internalType": "address",
          "name": "newRedemption",
          "type": "address"
        }
      ],
      "name": "setRedemption",
      "outputs": [],
      "stateMutability": "nonpayable",
      "type": "function"
    },
    {
      "inputs": [
        {
          "internalType": "address",
          "name": "newSigner",
          "type": "address"
        }
      ],
      "name": "setSigner",
      "outputs": [],
      "stateMutability": "nonpayable",
      "type": "function"
    },
    {
      "inputs": [],
      "name": "signer",
      "outputs": [
        {
          "internalType": "address",
          "name": "",
          "type": "address"
        }
      ],
      "stateMutability": "view",
      "type": "function"
    },
    {
      "inputs": [
        {
          "internalType": "bytes",
          "name": "",
          "type": "bytes"
        }
      ],
      "name": "soldQuantity",
      "outputs": [
        {
          "internalType": "uint256",
          "name": "",
          "type": "uint256"
        }
      ],
      "stateMutability": "view",
      "type": "function"
    },
    {
      "inputs": [
        {
          "internalType": "bytes",
          "name": "",
          "type": "bytes"
        }
      ],
      "name": "soldQuantityByEvent",
      "outputs": [
        {
          "internalType": "uint256",
          "name": "",
          "type": "uint256"
        }
      ],
      "stateMutability": "view",
      "type": "function"
    },
    {
      "inputs": [
        {
          "internalType": "bytes",
          "name": "",
          "type": "bytes"
        },
        {
          "internalType": "bytes",
          "name": "",
          "type": "bytes"
        }
      ],
      "name": "soldQuantityByEvent_",
      "outputs": [
        {
          "internalType": "uint256",
          "name": "",
          "type": "uint256"
        }
      ],
      "stateMutability": "view",
      "type": "function"
    },
    {
      "inputs": [
        {
          "internalType": "uint256[]",
          "name": "",
          "type": "uint256[]"
        },
        {
          "internalType": "address",
          "name": "",
          "type": "address"
        },
        {
          "internalType": "bytes",
          "name": "",
          "type": "bytes"
        },
        {
          "internalType": "bytes",
          "name": "",
          "type": "bytes"
        },
        {
          "internalType": "bytes",
          "name": "",
          "type": "bytes"
        },
        {
          "internalType": "bytes",
          "name": "",
          "type": "bytes"
        }
      ],
      "name": "submitRedemption",
      "outputs": [],
      "stateMutability": "nonpayable",
      "type": "function"
    },
    {
      "inputs": [
        {
          "internalType": "bytes4",
          "name": "interfaceId",
          "type": "bytes4"
        }
      ],
      "name": "supportsInterface",
      "outputs": [
        {
          "internalType": "bool",
          "name": "",
          "type": "bool"
        }
      ],
      "stateMutability": "view",
      "type": "function"
    },
    {
      "inputs": [
        {
          "internalType": "address",
          "name": "newImplementation",
          "type": "address"
        }
      ],
      "name": "upgradeTo",
      "outputs": [],
      "stateMutability": "nonpayable",
      "type": "function"
    },
    {
      "inputs": [
        {
          "internalType": "address",
          "name": "newImplementation",
          "type": "address"
        },
        {
          "internalType": "bytes",
          "name": "data",
          "type": "bytes"
        }
      ],
      "name": "upgradeToAndCall",
      "outputs": [],
      "stateMutability": "payable",
      "type": "function"
    },
    {
      "inputs": [
        {
          "internalType": "address",
          "name": "",
          "type": "address"
        },
        {
          "internalType": "uint256",
          "name": "",
          "type": "uint256"
        }
      ],
      "name": "withdraw",
      "outputs": [],
      "stateMutability": "nonpayable",
      "type": "function"
    },
    {
      "anonymous": false,
      "inputs": [
        {
          "indexed": false,
          "internalType": "bytes",
          "name": "transactionId",
          "type": "bytes"
        },
        {
          "indexed": false,
          "internalType": "uint256",
          "name": "tokenId",
          "type": "uint256"
        }
      ],
      "name": "RecoverMinted",
      "type": "event"
    }
  ],
  "bytecode": "0x60a06040523060805234801561001457600080fd5b5060805161261161004c60003960008181610c5601528181610c9601528181610d3501528181610d750152610e0401526126116000f3fe6080604052600436106102935760003560e01c80637ac3c02f1161015a578063b886c224116100c1578063c9faa7c51161007a578063c9faa7c51461087e578063cd002a95146108af578063d547741f146108e8578063df7f453b14610908578063f3fef3a314610928578063fd86ab591461094857600080fd5b8063b886c224146107e8578063b9e914ef14610419578063bafffc5014610808578063bc300ed31461085e578063c16af61714610768578063c6789cf9146106d857600080fd5b8063943dfef111610113578063943dfef114610733578063a217fddf14610753578063a68682b114610768578063abc8c7af14610788578063b2f0a944146107a8578063b36a9a7c146107c857600080fd5b80637ac3c02f146106585780638129fc1c1461067657806389a531251461068b5780638af18d54146106d857806391d14854146106f85780639249f3181461071857600080fd5b806336568abe116101fe57806358886dba116101b757806358886dba1461057057806359b9e47b146105905780636056f392146105bf5780636c19e783146105f857806373ad6c2d146106185780637a2ec63f1461063857600080fd5b806336568abe146104b75780633659cfe6146104d75780634f1ef286146104f75780635140e9ff1461050a57806352d1902d1461053b5780635467e0a71461055057600080fd5b8063210f2d3c11610250578063210f2d3c146103ac578063238ac933146103f957806323bca78414610419578063248a9ca31461043957806324d7806c146104775780632f2ff15d1461049757600080fd5b806301ffc9a71461029857806306b70725146102cd5780630d03e10e146102ef57806313007d551461030f578063150b7a021461034757806319129e5a1461038c575b600080fd5b3480156102a457600080fd5b506102b86102b33660046119cf565b610968565b60405190151581526020015b60405180910390f35b3480156102d957600080fd5b506102ed6102e8366004611a15565b61099f565b005b3480156102fb57600080fd5b506102ed61030a366004611a78565b610a07565b34801561031b57600080fd5b5060fb5461032f906001600160a01b031681565b6040516001600160a01b0390911681526020016102c4565b34801561035357600080fd5b50610373610362366004611b01565b630a85bd0160e11b95945050505050565b6040516001600160e01b031990911681526020016102c4565b34801561039857600080fd5b506102ed6103a7366004611a15565b610a24565b3480156103b857600080fd5b506102b86103c7366004611c11565b610104602090815260009283526040909220815180830184018051928152908401929093019190912091525460ff1681565b34801561040557600080fd5b5060ff5461032f906001600160a01b031681565b34801561042557600080fd5b506102ed610434366004611c5e565b610a8c565b34801561044557600080fd5b50610469610454366004611d45565b600090815260c9602052604090206001015490565b6040519081526020016102c4565b34801561048357600080fd5b506102b8610492366004611a15565b610aad565b3480156104a357600080fd5b506102ed6104b2366004611d5e565b610b9f565b3480156104c357600080fd5b506102ed6104d2366004611d5e565b610bc9565b3480156104e357600080fd5b506102ed6104f2366004611a15565b610c4c565b6102ed610505366004611c11565b610d2b565b34801561051657600080fd5b506102b8610525366004611d45565b6101076020526000908152604090205460ff1681565b34801561054757600080fd5b50610469610df7565b34801561055c57600080fd5b5060fe5461032f906001600160a01b031681565b34801561057c57600080fd5b5061046961058b366004611d45565b610eaa565b34801561059c57600080fd5b506105b06105ab366004611d8a565b610ecc565b6040516102c493929190611e16565b3480156105cb57600080fd5b506104696105da366004611d8a565b80516020818301810180516101018252928201919093012091525481565b34801561060457600080fd5b506102ed610613366004611a15565b610f91565b34801561062457600080fd5b506102ed610633366004611a15565b610ff9565b34801561064457600080fd5b506102ed610653366004611e86565b611061565b34801561066457600080fd5b5060ff546001600160a01b031661032f565b34801561068257600080fd5b506102ed611080565b34801561069757600080fd5b506102b86106a6366004611f39565b610103602090815260009283526040909220815180830184018051928152908401929093019190912091525460ff1681565b3480156106e457600080fd5b506102ed6106f3366004611f69565b611193565b34801561070457600080fd5b506102b8610713366004611d5e565b6111a8565b34801561072457600080fd5b506102ed61043436600461200b565b34801561073f57600080fd5b5060fc5461032f906001600160a01b031681565b34801561075f57600080fd5b50610469600081565b34801561077457600080fd5b506102ed6107833660046120e2565b6111d3565b34801561079457600080fd5b5060fd5461032f906001600160a01b031681565b3480156107b457600080fd5b506102ed6107c3366004611e86565b6111e8565b3480156107d457600080fd5b506102b86107e3366004612123565b6111fd565b3480156107f457600080fd5b506102ed61080336600461214d565b611226565b34801561081457600080fd5b50610469610823366004612250565b815160208184018101805161010882529282019482019490942091909352815180830184018051928152908401929093019190912091525481565b34801561086a57600080fd5b506102ed610879366004611a15565b611248565b34801561088a57600080fd5b506102b8610899366004611a15565b6101066020526000908152604090205460ff1681565b3480156108bb57600080fd5b506104696108ca366004611d8a565b80516020818301810180516101008252928201919093012091525481565b3480156108f457600080fd5b506102ed610903366004611d5e565b6112b0565b34801561091457600080fd5b506102b8610923366004611a15565b6112d5565b34801561093457600080fd5b506102ed610943366004612123565b6112e1565b34801561095457600080fd5b506102ed6109633660046122a9565b6112f6565b60006001600160e01b03198216637965db0b60e01b148061099957506301ffc9a760e01b6001600160e01b03198316145b92915050565b60006109aa8161130b565b60fe546040516001600160a01b038085169216907fb588eba46fcb742504afbebec2621206320273de507d9ff050e6bcf88019b5cd90600090a35060fe80546001600160a01b0319166001600160a01b0392909216919091179055565b60fc54610a1c906001600160a01b0316611315565b505050505050565b6000610a2f8161130b565b60fb546040516001600160a01b038085169216907f719934d6536fb74be642eae372e203203eac9b59c7b644ac0aa6afc66c3a8c4490600090a35060fb80546001600160a01b0319166001600160a01b0392909216919091179055565b60fd54610aa1906001600160a01b0316611315565b50505050505050505050565b6000610ab8826112d5565b15610ac557506001919050565b6000610105805480602002602001604051908101604052809291908181526020018280548015610b1457602002820191906000526020600020905b815481526020019060010190808311610b00575b505083519394506000925050505b81811015610b9457610b4d838281518110610b3f57610b3f61237f565b6020026020010151866111a8565b8015610b7257506001600160a01b0385166000908152610106602052604090205460ff165b15610b8257506001949350505050565b80610b8c816123ab565b915050610b22565b506000949350505050565b600082815260c96020526040902060010154610bba8161130b565b610bc48383611339565b505050565b6001600160a01b0381163314610c3e5760405162461bcd60e51b815260206004820152602f60248201527f416363657373436f6e74726f6c3a2063616e206f6e6c792072656e6f756e636560448201526e103937b632b9903337b91039b2b63360891b60648201526084015b60405180910390fd5b610c4882826113bf565b5050565b6001600160a01b037f0000000000000000000000000000000000000000000000000000000000000000163003610c945760405162461bcd60e51b8152600401610c35906123c4565b7f00000000000000000000000000000000000000000000000000000000000000006001600160a01b0316610cdd600080516020612595833981519152546001600160a01b031690565b6001600160a01b031614610d035760405162461bcd60e51b8152600401610c3590612410565b610d0c81611426565b60408051600080825260208201909252610d2891839190611431565b50565b6001600160a01b037f0000000000000000000000000000000000000000000000000000000000000000163003610d735760405162461bcd60e51b8152600401610c35906123c4565b7f00000000000000000000000000000000000000000000000000000000000000006001600160a01b0316610dbc600080516020612595833981519152546001600160a01b031690565b6001600160a01b031614610de25760405162461bcd60e51b8152600401610c3590612410565b610deb82611426565b610c4882826001611431565b6000306001600160a01b037f00000000000000000000000000000000000000000000000000000000000000001614610e975760405162461bcd60e51b815260206004820152603860248201527f555550535570677261646561626c653a206d757374206e6f742062652063616c60448201527f6c6564207468726f7567682064656c656761746563616c6c00000000000000006064820152608401610c35565b5060008051602061259583398151915290565b6101058181548110610ebb57600080fd5b600091825260209091200154905081565b805180820160209081018051610102825292820191909301209152805460018201546003830180546001600160a01b03938416949290931692610f0e9061245c565b80601f0160208091040260200160405190810160405280929190818152602001828054610f3a9061245c565b8015610f875780601f10610f5c57610100808354040283529160200191610f87565b820191906000526020600020905b815481529060010190602001808311610f6a57829003601f168201915b5050505050905083565b6000610f9c8161130b565b60ff546040516001600160a01b038085169216907feeb293e1f8f3a9db91ade748726387ed1352ca78f5430c5f06fe3d1e1ad5057990600090a35060ff80546001600160a01b0319166001600160a01b0392909216919091179055565b60006110048161130b565b60fd546040516001600160a01b038085169216907fc7afa5bbbb939feca6615e3a8c298615524ec5b0f27c48a211ee475fd2aca58790600090a35060fd80546001600160a01b0319166001600160a01b0392909216919091179055565b60fc54611076906001600160a01b0316611315565b5050505050505050565b600054610100900460ff16158080156110a05750600054600160ff909116105b806110ba5750303b1580156110ba575060005460ff166001145b61111d5760405162461bcd60e51b815260206004820152602e60248201527f496e697469616c697a61626c653a20636f6e747261637420697320616c72656160448201526d191e481a5b9a5d1a585b1a5e995960921b6064820152608401610c35565b6000805460ff191660011790558015611140576000805461ff0019166101001790555b61114b600033611339565b8015610d28576000805461ff0019169055604051600181527f7f26b83ff96e1f2b6a682f133852f6798a09c465da95921460cefb38474024989060200160405180910390a150565b60fe54611076906001600160a01b0316611315565b600091825260c9602090815260408084206001600160a01b0393909316845291905290205460ff1690565b60fb54610c48906001600160a01b0316611315565b60fb54611076906001600160a01b0316611315565b6000611208836112d5565b1561121557506001610999565b61121f82846111a8565b9392505050565b60fe5461123b906001600160a01b0316611315565b5050505050505050505050565b60006112538161130b565b60fc546040516001600160a01b038085169216907f57ab66540ba217409b5ecf78c8fdae79ba85f96b99343b019fdf1ce3af068d9490600090a35060fc80546001600160a01b0319166001600160a01b0392909216919091179055565b600082815260c960205260409020600101546112cb8161130b565b610bc483836113bf565b600061099981836111a8565b60fc54610c48906001600160a01b0316611315565b60fd5461123b906001600160a01b0316611315565b610d28813361159c565b3660008037600080366000845af43d6000803e808015611334573d6000f35b3d6000fd5b61134382826111a8565b610c4857600082815260c9602090815260408083206001600160a01b03851684529091529020805460ff1916600117905561137b3390565b6001600160a01b0316816001600160a01b0316837f2f8788117e7eff1d82e926ec794901d17c78024a50270940304540a733656f0d60405160405180910390a45050565b6113c982826111a8565b15610c4857600082815260c9602090815260408083206001600160a01b0385168085529252808320805460ff1916905551339285917ff6391f5c32d9c69d2a47ea670b442974b53935d1edc7fd64eb21e047a839171b9190a45050565b6000610c488161130b565b7f4910fdfa16fed3260ed0e7147f7cc6da11a60208b5b9406d12a635614ffd91435460ff161561146457610bc483611600565b826001600160a01b03166352d1902d6040518163ffffffff1660e01b8152600401602060405180830381865afa9250505080156114be575060408051601f3d908101601f191682019092526114bb91810190612496565b60015b6115215760405162461bcd60e51b815260206004820152602e60248201527f45524331393637557067726164653a206e657720696d706c656d656e7461746960448201526d6f6e206973206e6f74205555505360901b6064820152608401610c35565b60008051602061259583398151915281146115905760405162461bcd60e51b815260206004820152602960248201527f45524331393637557067726164653a20756e737570706f727465642070726f786044820152681a58589b195555525160ba1b6064820152608401610c35565b50610bc483838361169c565b6115a682826111a8565b610c48576115be816001600160a01b031660146116c7565b6115c98360206116c7565b6040516020016115da9291906124af565b60408051601f198184030181529082905262461bcd60e51b8252610c3591600401612524565b6001600160a01b0381163b61166d5760405162461bcd60e51b815260206004820152602d60248201527f455243313936373a206e657720696d706c656d656e746174696f6e206973206e60448201526c1bdd08184818dbdb9d1c9858dd609a1b6064820152608401610c35565b60008051602061259583398151915280546001600160a01b0319166001600160a01b0392909216919091179055565b6116a583611862565b6000825111806116b25750805b15610bc4576116c183836118a2565b50505050565b606060006116d6836002612537565b6116e190600261254e565b6001600160401b038111156116f8576116f8611b6f565b6040519080825280601f01601f191660200182016040528015611722576020820181803683370190505b509050600360fc1b8160008151811061173d5761173d61237f565b60200101906001600160f81b031916908160001a905350600f60fb1b8160018151811061176c5761176c61237f565b60200101906001600160f81b031916908160001a9053506000611790846002612537565b61179b90600161254e565b90505b6001811115611813576f181899199a1a9b1b9c1cb0b131b232b360811b85600f16601081106117cf576117cf61237f565b1a60f81b8282815181106117e5576117e561237f565b60200101906001600160f81b031916908160001a90535060049490941c9361180c81612561565b905061179e565b50831561121f5760405162461bcd60e51b815260206004820181905260248201527f537472696e67733a20686578206c656e67746820696e73756666696369656e746044820152606401610c35565b61186b81611600565b6040516001600160a01b038216907fbc7cd75a20ee27fd9adebab32041f755214dbc6bffa90cc0225b39da2e5c2d3b90600090a250565b60606001600160a01b0383163b61190a5760405162461bcd60e51b815260206004820152602660248201527f416464726573733a2064656c65676174652063616c6c20746f206e6f6e2d636f6044820152651b9d1c9858dd60d21b6064820152608401610c35565b600080846001600160a01b0316846040516119259190612578565b600060405180830381855af49150503d8060008114611960576040519150601f19603f3d011682016040523d82523d6000602084013e611965565b606091505b509150915061198d82826040518060600160405280602781526020016125b560279139611996565b95945050505050565b606083156119a557508161121f565b8251156119b55782518084602001fd5b8160405162461bcd60e51b8152600401610c359190612524565b6000602082840312156119e157600080fd5b81356001600160e01b03198116811461121f57600080fd5b80356001600160a01b0381168114611a1057600080fd5b919050565b600060208284031215611a2757600080fd5b61121f826119f9565b60008083601f840112611a4257600080fd5b5081356001600160401b03811115611a5957600080fd5b602083019150836020828501011115611a7157600080fd5b9250929050565b60008060008060008060808789031215611a9157600080fd5b611a9a876119f9565b95506020870135945060408701356001600160401b0380821115611abd57600080fd5b611ac98a838b01611a30565b90965094506060890135915080821115611ae257600080fd5b50611aef89828a01611a30565b979a9699509497509295939492505050565b600080600080600060808688031215611b1957600080fd5b611b22866119f9565b9450611b30602087016119f9565b93506040860135925060608601356001600160401b03811115611b5257600080fd5b611b5e88828901611a30565b969995985093965092949392505050565b634e487b7160e01b600052604160045260246000fd5b600082601f830112611b9657600080fd5b81356001600160401b0380821115611bb057611bb0611b6f565b604051601f8301601f19908116603f01168101908282118183101715611bd857611bd8611b6f565b81604052838152866020858801011115611bf157600080fd5b836020870160208301376000602085830101528094505050505092915050565b60008060408385031215611c2457600080fd5b611c2d836119f9565b915060208301356001600160401b03811115611c4857600080fd5b611c5485828601611b85565b9150509250929050565b60008060008060008060008060008060c08b8d031215611c7d57600080fd5b611c868b6119f9565b9950611c9460208c016119f9565b985060408b01356001600160401b0380821115611cb057600080fd5b611cbc8e838f01611a30565b909a50985060608d0135915080821115611cd557600080fd5b611ce18e838f01611a30565b909850965060808d0135915080821115611cfa57600080fd5b611d068e838f01611a30565b909650945060a08d0135915080821115611d1f57600080fd5b50611d2c8d828e01611a30565b915080935050809150509295989b9194979a5092959850565b600060208284031215611d5757600080fd5b5035919050565b60008060408385031215611d7157600080fd5b82359150611d81602084016119f9565b90509250929050565b600060208284031215611d9c57600080fd5b81356001600160401b03811115611db257600080fd5b611dbe84828501611b85565b949350505050565b60005b83811015611de1578181015183820152602001611dc9565b50506000910152565b60008151808452611e02816020860160208601611dc6565b601f01601f19169290920160200192915050565b6001600160a01b0384811682528316602082015260606040820181905260009061198d90830184611dea565b60008083601f840112611e5457600080fd5b5081356001600160401b03811115611e6b57600080fd5b6020830191508360208260051b8501011115611a7157600080fd5b60008060008060008060008060a0898b031215611ea257600080fd5b611eab896119f9565b97506020890135965060408901356001600160401b0380821115611ece57600080fd5b611eda8c838d01611e42565b909850965060608b0135915080821115611ef357600080fd5b611eff8c838d01611a30565b909650945060808b0135915080821115611f1857600080fd5b50611f258b828c01611a30565b999c989b5096995094979396929594505050565b60008060408385031215611f4c57600080fd5b8235915060208301356001600160401b03811115611c4857600080fd5b6000806000806000806000806080898b031215611f8557600080fd5b88356001600160401b0380821115611f9c57600080fd5b611fa88c838d01611a30565b909a50985060208b0135915080821115611fc157600080fd5b611fcd8c838d01611a30565b909850965060408b0135915080821115611fe657600080fd5b611ff28c838d01611a30565b909650945060608b0135915080821115611f1857600080fd5b60008060008060008060008060008060a08b8d03121561202a57600080fd5b8a356001600160401b038082111561204157600080fd5b61204d8e838f01611e42565b909c509a5060208d013591508082111561206657600080fd5b6120728e838f01611e42565b909a50985060408d013591508082111561208b57600080fd5b6120978e838f01611e42565b909850965060608d01359150808211156120b057600080fd5b6120bc8e838f01611e42565b909650945060808d01359150808211156120d557600080fd5b50611d2c8d828e01611e42565b600080602083850312156120f557600080fd5b82356001600160401b0381111561210b57600080fd5b61211785828601611e42565b90969095509350505050565b6000806040838503121561213657600080fd5b61213f836119f9565b946020939093013593505050565b600080600080600080600080600080600060c08c8e03121561216e57600080fd5b6001600160401b03808d35111561218457600080fd5b6121918e8e358f01611e42565b909c509a506121a260208e016119f9565b99508060408e013511156121b557600080fd5b6121c58e60408f01358f01611a30565b909950975060608d01358110156121db57600080fd5b6121eb8e60608f01358f01611a30565b909750955060808d013581101561220157600080fd5b6122118e60808f01358f01611a30565b909550935060a08d013581101561222757600080fd5b506122388d60a08e01358e01611a30565b81935080925050509295989b509295989b9093969950565b6000806040838503121561226357600080fd5b82356001600160401b038082111561227a57600080fd5b61228686838701611b85565b9350602085013591508082111561229c57600080fd5b50611c5485828601611b85565b600080600080600080600080600080600060e08c8e0312156122ca57600080fd5b8b359a5060208c013599506122e160408d016119f9565b98506001600160401b038060608e013511156122fc57600080fd5b61230c8e60608f01358f01611a30565b909950975060808d013581101561232257600080fd5b6123328e60808f01358f01611a30565b909750955060a08d013581101561234857600080fd5b6123588e60a08f01358f01611a30565b909550935060c08d013581101561236e57600080fd5b506122388d60c08e01358e01611a30565b634e487b7160e01b600052603260045260246000fd5b634e487b7160e01b600052601160045260246000fd5b6000600182016123bd576123bd612395565b5060010190565b6020808252602c908201527f46756e6374696f6e206d7573742062652063616c6c6564207468726f7567682060408201526b19195b1959d85d1958d85b1b60a21b606082015260800190565b6020808252602c908201527f46756e6374696f6e206d7573742062652063616c6c6564207468726f7567682060408201526b6163746976652070726f787960a01b606082015260800190565b600181811c9082168061247057607f821691505b60208210810361249057634e487b7160e01b600052602260045260246000fd5b50919050565b6000602082840312156124a857600080fd5b5051919050565b7f416363657373436f6e74726f6c3a206163636f756e74200000000000000000008152600083516124e7816017850160208801611dc6565b7001034b99036b4b9b9b4b733903937b6329607d1b6017918401918201528351612518816028840160208801611dc6565b01602801949350505050565b60208152600061121f6020830184611dea565b808202811582820484141761099957610999612395565b8082018082111561099957610999612395565b60008161257057612570612395565b506000190190565b6000825161258a818460208701611dc6565b919091019291505056fe360894a13ba1a3210667c828492db98dca3e2076cc3735a920a3ca505d382bbc416464726573733a206c6f772d6c6576656c2064656c65676174652063616c6c206661696c6564a2646970667358221220720525d130f1ea8b343953e834c2ba22f1c71f240575f4db8a01d8533dc1a4ea64736f6c63430008110033",
  "linkReferences": {},
  "deployedLinkReferences": {}
}