{
  "_format": "hh-sol-artifact-1",
  "contractName": "Locking",
  "sourceName": "contracts/modules/locking/Locking.sol",
  "abi": [
    {
      "anonymous": false,
      "inputs": [
        {
          "indexed": false,
          "internalType": "address",
          "name": "previousAdmin",
          "type": "address"
        },
        {
          "indexed": false,
          "internalType": "address",
          "name": "newAdmin",
          "type": "address"
        }
      ],
      "name": "AdminChanged",
      "type": "event"
    },
    {
      "anonymous": false,
      "inputs": [
        {
          "indexed": true,
          "internalType": "address",
          "name": "beacon",
          "type": "address"
        }
      ],
      "name": "BeaconUpgraded",
      "type": "event"
    },
    {
      "anonymous": false,
      "inputs": [
        {
          "indexed": false,
          "internalType": "uint8",
          "name": "version",
          "type": "uint8"
        }
      ],
      "name": "Initialized",
      "type": "event"
    },
    {
      "anonymous": false,
      "inputs": [
        {
          "indexed": false,
          "internalType": "address",
          "name": "owner",
          "type": "address"
        },
        {
          "indexed": false,
          "internalType": "address",
          "name": "collection",
          "type": "address"
        },
        {
          "indexed": false,
          "internalType": "uint256[]",
          "name": "tokenIds",
          "type": "uint256[]"
        },
        {
          "indexed": false,
          "internalType": "uint256",
          "name": "timestamp",
          "type": "uint256"
        }
      ],
      "name": "Locked",
      "type": "event"
    },
    {
      "anonymous": false,
      "inputs": [
        {
          "indexed": true,
          "internalType": "address",
          "name": "previousOwner",
          "type": "address"
        },
        {
          "indexed": true,
          "internalType": "address",
          "name": "newOwner",
          "type": "address"
        }
      ],
      "name": "OwnershipTransferred",
      "type": "event"
    },
    {
      "anonymous": false,
      "inputs": [
        {
          "indexed": false,
          "internalType": "address",
          "name": "owner",
          "type": "address"
        },
        {
          "indexed": false,
          "internalType": "address",
          "name": "collection",
          "type": "address"
        },
        {
          "indexed": false,
          "internalType": "uint256[]",
          "name": "tokenIds",
          "type": "uint256[]"
        },
        {
          "indexed": false,
          "internalType": "uint256",
          "name": "timestamp",
          "type": "uint256"
        }
      ],
      "name": "Unlocked",
      "type": "event"
    },
    {
      "anonymous": false,
      "inputs": [
        {
          "indexed": true,
          "internalType": "address",
          "name": "implementation",
          "type": "address"
        }
      ],
      "name": "Upgraded",
      "type": "event"
    },
    {
      "inputs": [],
      "name": "initialize",
      "outputs": [],
      "stateMutability": "nonpayable",
      "type": "function"
    },
    {
      "inputs": [
        {
          "internalType": "uint256[]",
          "name": "tokenIds",
          "type": "uint256[]"
        },
        {
          "internalType": "address",
          "name": "collection",
          "type": "address"
        }
      ],
      "name": "lock",
      "outputs": [],
      "stateMutability": "nonpayable",
      "type": "function"
    },
    {
      "inputs": [
        {
          "internalType": "address",
          "name": "",
          "type": "address"
        },
        {
          "internalType": "address",
          "name": "",
          "type": "address"
        },
        {
          "internalType": "uint256",
          "name": "",
          "type": "uint256"
        },
        {
          "internalType": "bytes",
          "name": "",
          "type": "bytes"
        }
      ],
      "name": "onERC721Received",
      "outputs": [
        {
          "internalType": "bytes4",
          "name": "",
          "type": "bytes4"
        }
      ],
      "stateMutability": "pure",
      "type": "function"
    },
    {
      "inputs": [],
      "name": "owner",
      "outputs": [
        {
          "internalType": "address",
          "name": "",
          "type": "address"
        }
      ],
      "stateMutability": "view",
      "type": "function"
    },
    {
      "inputs": [
        {
          "internalType": "uint256",
          "name": "",
          "type": "uint256"
        }
      ],
      "name": "owners",
      "outputs": [
        {
          "internalType": "address",
          "name": "",
          "type": "address"
        }
      ],
      "stateMutability": "view",
      "type": "function"
    },
    {
      "inputs": [],
      "name": "proxiableUUID",
      "outputs": [
        {
          "internalType": "bytes32",
          "name": "",
          "type": "bytes32"
        }
      ],
      "stateMutability": "view",
      "type": "function"
    },
    {
      "inputs": [],
      "name": "renounceOwnership",
      "outputs": [],
      "stateMutability": "nonpayable",
      "type": "function"
    },
    {
      "inputs": [
        {
          "internalType": "address",
          "name": "newOwner",
          "type": "address"
        }
      ],
      "name": "transferOwnership",
      "outputs": [],
      "stateMutability": "nonpayable",
      "type": "function"
    },
    {
      "inputs": [
        {
          "internalType": "uint256[]",
          "name": "tokenIds",
          "type": "uint256[]"
        },
        {
          "internalType": "address",
          "name": "collection",
          "type": "address"
        }
      ],
      "name": "unlocked",
      "outputs": [],
      "stateMutability": "nonpayable",
      "type": "function"
    },
    {
      "inputs": [
        {
          "internalType": "address",
          "name": "newImplementation",
          "type": "address"
        }
      ],
      "name": "upgradeTo",
      "outputs": [],
      "stateMutability": "nonpayable",
      "type": "function"
    },
    {
      "inputs": [
        {
          "internalType": "address",
          "name": "newImplementation",
          "type": "address"
        },
        {
          "internalType": "bytes",
          "name": "data",
          "type": "bytes"
        }
      ],
      "name": "upgradeToAndCall",
      "outputs": [],
      "stateMutability": "payable",
      "type": "function"
    }
  ],
  "bytecode": "0x60a06040523073ffffffffffffffffffffffffffffffffffffffff1660809073ffffffffffffffffffffffffffffffffffffffff1681525034801561004357600080fd5b506080516123a361007b600039600081816106fb01528181610789015281816108830152818161091101526109c101526123a36000f3fe60806040526004361061009c5760003560e01c80634f1ef286116100645780634f1ef2861461019657806352d1902d146101b2578063715018a6146101dd5780638129fc1c146101f45780638da5cb5b1461020b578063f2fde38b146102365761009c565b8063025e7c27146100a15780630402acaf146100de578063150b7a021461010757806324377ad0146101445780633659cfe61461016d575b600080fd5b3480156100ad57600080fd5b506100c860048036038101906100c39190611377565b61025f565b6040516100d591906113e5565b60405180910390f35b3480156100ea57600080fd5b5061010560048036038101906101009190611585565b610292565b005b34801561011357600080fd5b5061012e6004803603810190610129919061163c565b61048a565b60405161013b91906116ff565b60405180910390f35b34801561015057600080fd5b5061016b60048036038101906101669190611585565b61049f565b005b34801561017957600080fd5b50610194600480360381019061018f919061171a565b6106f9565b005b6101b060048036038101906101ab91906117fc565b610881565b005b3480156101be57600080fd5b506101c76109bd565b6040516101d49190611871565b60405180910390f35b3480156101e957600080fd5b506101f2610a76565b005b34801561020057600080fd5b50610209610a8a565b005b34801561021757600080fd5b50610220610a94565b60405161022d91906113e5565b60405180910390f35b34801561024257600080fd5b5061025d6004803603810190610258919061171a565b610abe565b005b60c96020528060005260406000206000915054906101000a900473ffffffffffffffffffffffffffffffffffffffff1681565b60008251905060005b818110156104475760008482815181106102b8576102b761188c565b5b602002602001015190503373ffffffffffffffffffffffffffffffffffffffff1660c9600083815260200190815260200160002060009054906101000a900473ffffffffffffffffffffffffffffffffffffffff1673ffffffffffffffffffffffffffffffffffffffff161461032d82610b41565b60405160200161033d9190611952565b6040516020818303038152906040529061038d576040517f08c379a000000000000000000000000000000000000000000000000000000000815260040161038491906119c2565b60405180910390fd5b508373ffffffffffffffffffffffffffffffffffffffff166342842e0e3033846040518463ffffffff1660e01b81526004016103cb939291906119f3565b600060405180830381600087803b1580156103e557600080fd5b505af11580156103f9573d6000803e3d6000fd5b5050505060c9600082815260200190815260200160002060006101000a81549073ffffffffffffffffffffffffffffffffffffffff021916905550808061043f90611a59565b91505061029b565b507f20712c6e140d93816437ffaf10fa894844d05dad53bd80112191585d46f906c23383854260405161047d9493929190611b5f565b60405180910390a1505050565b600063150b7a0260e01b905095945050505050565b60008251905060005b818110156106b65760008482815181106104c5576104c461188c565b5b602002602001015190503373ffffffffffffffffffffffffffffffffffffffff168473ffffffffffffffffffffffffffffffffffffffff16636352211e836040518263ffffffff1660e01b815260040161051f9190611bab565b602060405180830381865afa15801561053c573d6000803e3d6000fd5b505050506040513d601f19601f820116820180604052508101906105609190611bdb565b73ffffffffffffffffffffffffffffffffffffffff161461058082610b41565b6040516020016105909190611952565b604051602081830303815290604052906105e0576040517f08c379a00000000000000000000000000000000000000000000000000000000081526004016105d791906119c2565b60405180910390fd5b508373ffffffffffffffffffffffffffffffffffffffff166342842e0e3330846040518463ffffffff1660e01b815260040161061e939291906119f3565b600060405180830381600087803b15801561063857600080fd5b505af115801561064c573d6000803e3d6000fd5b505050503360c9600083815260200190815260200160002060006101000a81548173ffffffffffffffffffffffffffffffffffffffff021916908373ffffffffffffffffffffffffffffffffffffffff1602179055505080806106ae90611a59565b9150506104a8565b507f78752edf1339c364a3aa7aea8ff315ccd9c2e79552ba9246b31fb34e58574f28338385426040516106ec9493929190611b5f565b60405180910390a1505050565b7f000000000000000000000000000000000000000000000000000000000000000073ffffffffffffffffffffffffffffffffffffffff163073ffffffffffffffffffffffffffffffffffffffff1603610787576040517f08c379a000000000000000000000000000000000000000000000000000000000815260040161077e90611c7a565b60405180910390fd5b7f000000000000000000000000000000000000000000000000000000000000000073ffffffffffffffffffffffffffffffffffffffff166107c6610ca1565b73ffffffffffffffffffffffffffffffffffffffff161461081c576040517f08c379a000000000000000000000000000000000000000000000000000000000815260040161081390611d0c565b60405180910390fd5b61082581610cf8565b61087e81600067ffffffffffffffff81111561084457610843611416565b5b6040519080825280601f01601f1916602001820160405280156108765781602001600182028036833780820191505090505b506000610d03565b50565b7f000000000000000000000000000000000000000000000000000000000000000073ffffffffffffffffffffffffffffffffffffffff163073ffffffffffffffffffffffffffffffffffffffff160361090f576040517f08c379a000000000000000000000000000000000000000000000000000000000815260040161090690611c7a565b60405180910390fd5b7f000000000000000000000000000000000000000000000000000000000000000073ffffffffffffffffffffffffffffffffffffffff1661094e610ca1565b73ffffffffffffffffffffffffffffffffffffffff16146109a4576040517f08c379a000000000000000000000000000000000000000000000000000000000815260040161099b90611d0c565b60405180910390fd5b6109ad82610cf8565b6109b982826001610d03565b5050565b60007f000000000000000000000000000000000000000000000000000000000000000073ffffffffffffffffffffffffffffffffffffffff163073ffffffffffffffffffffffffffffffffffffffff1614610a4d576040517f08c379a0000000000000000000000000000000000000000000000000000000008152600401610a4490611d9e565b60405180910390fd5b7f360894a13ba1a3210667c828492db98dca3e2076cc3735a920a3ca505d382bbc60001b905090565b610a7e610e71565b610a886000610eef565b565b610a92610fb5565b565b6000609760009054906101000a900473ffffffffffffffffffffffffffffffffffffffff16905090565b610ac6610e71565b600073ffffffffffffffffffffffffffffffffffffffff168173ffffffffffffffffffffffffffffffffffffffff1603610b35576040517f08c379a0000000000000000000000000000000000000000000000000000000008152600401610b2c90611e30565b60405180910390fd5b610b3e81610eef565b50565b606060008203610b88576040518060400160405280600181526020017f30000000000000000000000000000000000000000000000000000000000000008152509050610c9c565b600082905060005b60008214610bba578080610ba390611a59565b915050600a82610bb39190611e7f565b9150610b90565b60008167ffffffffffffffff811115610bd657610bd5611416565b5b6040519080825280601f01601f191660200182016040528015610c085781602001600182028036833780820191505090505b5090505b60008514610c9557600182610c219190611eb0565b9150600a85610c309190611ee4565b6030610c3c9190611f15565b60f81b818381518110610c5257610c5161188c565b5b60200101907effffffffffffffffffffffffffffffffffffffffffffffffffffffffffffff1916908160001a905350600a85610c8e9190611e7f565b9450610c0c565b8093505050505b919050565b6000610ccf7f360894a13ba1a3210667c828492db98dca3e2076cc3735a920a3ca505d382bbc60001b61100e565b60000160009054906101000a900473ffffffffffffffffffffffffffffffffffffffff16905090565b610d00610e71565b50565b610d2f7f4910fdfa16fed3260ed0e7147f7cc6da11a60208b5b9406d12a635614ffd914360001b611018565b60000160009054906101000a900460ff1615610d5357610d4e83611022565b610e6c565b8273ffffffffffffffffffffffffffffffffffffffff166352d1902d6040518163ffffffff1660e01b8152600401602060405180830381865afa925050508015610dbb57506040513d601f19601f82011682018060405250810190610db89190611f75565b60015b610dfa576040517f08c379a0000000000000000000000000000000000000000000000000000000008152600401610df190612014565b60405180910390fd5b7f360894a13ba1a3210667c828492db98dca3e2076cc3735a920a3ca505d382bbc60001b8114610e5f576040517f08c379a0000000000000000000000000000000000000000000000000000000008152600401610e56906120a6565b60405180910390fd5b50610e6b8383836110db565b5b505050565b610e79611107565b73ffffffffffffffffffffffffffffffffffffffff16610e97610a94565b73ffffffffffffffffffffffffffffffffffffffff1614610eed576040517f08c379a0000000000000000000000000000000000000000000000000000000008152600401610ee490612112565b60405180910390fd5b565b6000609760009054906101000a900473ffffffffffffffffffffffffffffffffffffffff16905081609760006101000a81548173ffffffffffffffffffffffffffffffffffffffff021916908373ffffffffffffffffffffffffffffffffffffffff1602179055508173ffffffffffffffffffffffffffffffffffffffff168173ffffffffffffffffffffffffffffffffffffffff167f8be0079c531659141344cd1fd0a4f28419497f9722a3daafe3b4186f6b6457e060405160405180910390a35050565b600060019054906101000a900460ff16611004576040517f08c379a0000000000000000000000000000000000000000000000000000000008152600401610ffb906121a4565b60405180910390fd5b61100c61110f565b565b6000819050919050565b6000819050919050565b61102b81611170565b61106a576040517f08c379a000000000000000000000000000000000000000000000000000000000815260040161106190612236565b60405180910390fd5b806110977f360894a13ba1a3210667c828492db98dca3e2076cc3735a920a3ca505d382bbc60001b61100e565b60000160006101000a81548173ffffffffffffffffffffffffffffffffffffffff021916908373ffffffffffffffffffffffffffffffffffffffff16021790555050565b6110e483611193565b6000825111806110f15750805b156111025761110083836111e2565b505b505050565b600033905090565b600060019054906101000a900460ff1661115e576040517f08c379a0000000000000000000000000000000000000000000000000000000008152600401611155906121a4565b60405180910390fd5b61116e611169611107565b610eef565b565b6000808273ffffffffffffffffffffffffffffffffffffffff163b119050919050565b61119c81611022565b8073ffffffffffffffffffffffffffffffffffffffff167fbc7cd75a20ee27fd9adebab32041f755214dbc6bffa90cc0225b39da2e5c2d3b60405160405180910390a250565b60606111ed83611170565b61122c576040517f08c379a0000000000000000000000000000000000000000000000000000000008152600401611223906122c8565b60405180910390fd5b6000808473ffffffffffffffffffffffffffffffffffffffff1684604051611254919061232f565b600060405180830381855af49150503d806000811461128f576040519150601f19603f3d011682016040523d82523d6000602084013e611294565b606091505b50915091506112bc8282604051806060016040528060278152602001612347602791396112c6565b9250505092915050565b606083156112d657829050611326565b6000835111156112e95782518084602001fd5b816040517f08c379a000000000000000000000000000000000000000000000000000000000815260040161131d91906119c2565b60405180910390fd5b9392505050565b6000604051905090565b600080fd5b600080fd5b6000819050919050565b61135481611341565b811461135f57600080fd5b50565b6000813590506113718161134b565b92915050565b60006020828403121561138d5761138c611337565b5b600061139b84828501611362565b91505092915050565b600073ffffffffffffffffffffffffffffffffffffffff82169050919050565b60006113cf826113a4565b9050919050565b6113df816113c4565b82525050565b60006020820190506113fa60008301846113d6565b92915050565b600080fd5b6000601f19601f8301169050919050565b7f4e487b7100000000000000000000000000000000000000000000000000000000600052604160045260246000fd5b61144e82611405565b810181811067ffffffffffffffff8211171561146d5761146c611416565b5b80604052505050565b600061148061132d565b905061148c8282611445565b919050565b600067ffffffffffffffff8211156114ac576114ab611416565b5b602082029050602081019050919050565b600080fd5b60006114d56114d084611491565b611476565b905080838252602082019050602084028301858111156114f8576114f76114bd565b5b835b81811015611521578061150d8882611362565b8452602084019350506020810190506114fa565b5050509392505050565b600082601f8301126115405761153f611400565b5b81356115508482602086016114c2565b91505092915050565b611562816113c4565b811461156d57600080fd5b50565b60008135905061157f81611559565b92915050565b6000806040838503121561159c5761159b611337565b5b600083013567ffffffffffffffff8111156115ba576115b961133c565b5b6115c68582860161152b565b92505060206115d785828601611570565b9150509250929050565b600080fd5b60008083601f8401126115fc576115fb611400565b5b8235905067ffffffffffffffff811115611619576116186115e1565b5b602083019150836001820283011115611635576116346114bd565b5b9250929050565b60008060008060006080868803121561165857611657611337565b5b600061166688828901611570565b955050602061167788828901611570565b945050604061168888828901611362565b935050606086013567ffffffffffffffff8111156116a9576116a861133c565b5b6116b5888289016115e6565b92509250509295509295909350565b60007fffffffff0000000000000000000000000000000000000000000000000000000082169050919050565b6116f9816116c4565b82525050565b600060208201905061171460008301846116f0565b92915050565b6000602082840312156117305761172f611337565b5b600061173e84828501611570565b91505092915050565b600080fd5b600067ffffffffffffffff82111561176757611766611416565b5b61177082611405565b9050602081019050919050565b82818337600083830152505050565b600061179f61179a8461174c565b611476565b9050828152602081018484840111156117bb576117ba611747565b5b6117c684828561177d565b509392505050565b600082601f8301126117e3576117e2611400565b5b81356117f384826020860161178c565b91505092915050565b6000806040838503121561181357611812611337565b5b600061182185828601611570565b925050602083013567ffffffffffffffff8111156118425761184161133c565b5b61184e858286016117ce565b9150509250929050565b6000819050919050565b61186b81611858565b82525050565b60006020820190506118866000830184611862565b92915050565b7f4e487b7100000000000000000000000000000000000000000000000000000000600052603260045260246000fd5b7f4c6f636b696e673a204e4f545f4f574e45525f4f460000000000000000000000815250565b600081519050919050565b600081905092915050565b60005b838110156119155780820151818401526020810190506118fa565b60008484015250505050565b600061192c826118e1565b61193681856118ec565b93506119468185602086016118f7565b80840191505092915050565b600061195d826118bb565b60158201915061196d8284611921565b915081905092915050565b600082825260208201905092915050565b6000611994826118e1565b61199e8185611978565b93506119ae8185602086016118f7565b6119b781611405565b840191505092915050565b600060208201905081810360008301526119dc8184611989565b905092915050565b6119ed81611341565b82525050565b6000606082019050611a0860008301866113d6565b611a1560208301856113d6565b611a2260408301846119e4565b949350505050565b7f4e487b7100000000000000000000000000000000000000000000000000000000600052601160045260246000fd5b6000611a6482611341565b91507fffffffffffffffffffffffffffffffffffffffffffffffffffffffffffffffff8203611a9657611a95611a2a565b5b600182019050919050565b600081519050919050565b600082825260208201905092915050565b6000819050602082019050919050565b611ad681611341565b82525050565b6000611ae88383611acd565b60208301905092915050565b6000602082019050919050565b6000611b0c82611aa1565b611b168185611aac565b9350611b2183611abd565b8060005b83811015611b52578151611b398882611adc565b9750611b4483611af4565b925050600181019050611b25565b5085935050505092915050565b6000608082019050611b7460008301876113d6565b611b8160208301866113d6565b8181036040830152611b938185611b01565b9050611ba260608301846119e4565b95945050505050565b6000602082019050611bc060008301846119e4565b92915050565b600081519050611bd581611559565b92915050565b600060208284031215611bf157611bf0611337565b5b6000611bff84828501611bc6565b91505092915050565b7f46756e6374696f6e206d7573742062652063616c6c6564207468726f7567682060008201527f64656c656761746563616c6c0000000000000000000000000000000000000000602082015250565b6000611c64602c83611978565b9150611c6f82611c08565b604082019050919050565b60006020820190508181036000830152611c9381611c57565b9050919050565b7f46756e6374696f6e206d7573742062652063616c6c6564207468726f7567682060008201527f6163746976652070726f78790000000000000000000000000000000000000000602082015250565b6000611cf6602c83611978565b9150611d0182611c9a565b604082019050919050565b60006020820190508181036000830152611d2581611ce9565b9050919050565b7f555550535570677261646561626c653a206d757374206e6f742062652063616c60008201527f6c6564207468726f7567682064656c656761746563616c6c0000000000000000602082015250565b6000611d88603883611978565b9150611d9382611d2c565b604082019050919050565b60006020820190508181036000830152611db781611d7b565b9050919050565b7f4f776e61626c653a206e6577206f776e657220697320746865207a65726f206160008201527f6464726573730000000000000000000000000000000000000000000000000000602082015250565b6000611e1a602683611978565b9150611e2582611dbe565b604082019050919050565b60006020820190508181036000830152611e4981611e0d565b9050919050565b7f4e487b7100000000000000000000000000000000000000000000000000000000600052601260045260246000fd5b6000611e8a82611341565b9150611e9583611341565b925082611ea557611ea4611e50565b5b828204905092915050565b6000611ebb82611341565b9150611ec683611341565b9250828203905081811115611ede57611edd611a2a565b5b92915050565b6000611eef82611341565b9150611efa83611341565b925082611f0a57611f09611e50565b5b828206905092915050565b6000611f2082611341565b9150611f2b83611341565b9250828201905080821115611f4357611f42611a2a565b5b92915050565b611f5281611858565b8114611f5d57600080fd5b50565b600081519050611f6f81611f49565b92915050565b600060208284031215611f8b57611f8a611337565b5b6000611f9984828501611f60565b91505092915050565b7f45524331393637557067726164653a206e657720696d706c656d656e7461746960008201527f6f6e206973206e6f742055555053000000000000000000000000000000000000602082015250565b6000611ffe602e83611978565b915061200982611fa2565b604082019050919050565b6000602082019050818103600083015261202d81611ff1565b9050919050565b7f45524331393637557067726164653a20756e737570706f727465642070726f7860008201527f6961626c65555549440000000000000000000000000000000000000000000000602082015250565b6000612090602983611978565b915061209b82612034565b604082019050919050565b600060208201905081810360008301526120bf81612083565b9050919050565b7f4f776e61626c653a2063616c6c6572206973206e6f7420746865206f776e6572600082015250565b60006120fc602083611978565b9150612107826120c6565b602082019050919050565b6000602082019050818103600083015261212b816120ef565b9050919050565b7f496e697469616c697a61626c653a20636f6e7472616374206973206e6f74206960008201527f6e697469616c697a696e67000000000000000000000000000000000000000000602082015250565b600061218e602b83611978565b915061219982612132565b604082019050919050565b600060208201905081810360008301526121bd81612181565b9050919050565b7f455243313936373a206e657720696d706c656d656e746174696f6e206973206e60008201527f6f74206120636f6e747261637400000000000000000000000000000000000000602082015250565b6000612220602d83611978565b915061222b826121c4565b604082019050919050565b6000602082019050818103600083015261224f81612213565b9050919050565b7f416464726573733a2064656c65676174652063616c6c20746f206e6f6e2d636f60008201527f6e74726163740000000000000000000000000000000000000000000000000000602082015250565b60006122b2602683611978565b91506122bd82612256565b604082019050919050565b600060208201905081810360008301526122e1816122a5565b9050919050565b600081519050919050565b600081905092915050565b6000612309826122e8565b61231381856122f3565b93506123238185602086016118f7565b80840191505092915050565b600061233b82846122fe565b91508190509291505056fe416464726573733a206c6f772d6c6576656c2064656c65676174652063616c6c206661696c6564a26469706673582212205ff1213c5699981e47389edd054eb28a5802bfb5d06c31b92b402fd7281af11b64736f6c63430008110033",
  "linkReferences": {},
  "deployedLinkReferences": {}
}